:020000020000FC
:1000000034C018950EC01895189518951895189520
:1000100018951895189515C0189518951895189550
:1000200018951F932F932FB710916000133031F460
:1000300019B3107FD9D0109362002FBF2F911F9159
:10004000189502C008EA52B705270295500F189577
:10005000B6D0A5D0AAD03FEF7894089506E080D01E
:100060000A95E9F7CDD0002708950FED0DBF0027C1
:10007000109361000F9301E0009360000F911091C5
:100080006000113041F4E4DF109361000F9302E04F
:10009000009360000F91123041F45AD01093610028
:1000A0000F9303E0009360000F911330A1F52091AE
:1000B0006200203E39F40F930EE806BF0F91D89AE4
:1000C000BA9AF5CFD898BA9820916200203D39F4B9
:1000D000D99ABA9A0F9307E406BF0F91F5CFD99832
:1000E000BA9820916200203B39F4DA9ABA9A0F93B9
:1000F00009E606BF0F91F5CFDA98BA982091620011
:10010000203739F4DB9ABA9A0F9300E506BF0F91B6
:10011000F5CFDB98BA98143001F4B1CF74E0DD2745
:10012000C0E862D0652F663430F06C3830F0683C3F
:1001300030F06F3F30F0A1E005C0A2E003C0A3E0C3
:1001400001C0A4E0A9937A95703059F70000089592
:10015000E5DF08953A50383208F008953FEF0895EA
:100160004BB30F9301EF0BBB0F913ED011E033E087
:1001700020EF110F210F2BBB37D03A95C9F70F9302
:1001800008EF0BBB0F9130D018E033E020EF16954D
:10019000210F2BBB29D03A95C9F74BBB089500E13D
:1001A0000BBF00EF02BB00270895BA9802E400BF1E
:1001B0000FEF06BF02E003BF01E009BF08950FE0A3
:1001C0000ABB02950BBBBA9AC29808952F934F931E
:1001D0002FEF432F00002A95E9F700004A95D1F749
:1001E00000004F912F9108952F933F9321E43FEE0C
:1001F0003A95F1F72A95E1F700003F912F91089584
:1002000024E683EC99E00197F1F72A95D1F724E6EB
:1002100008954D656D6F7279206C65642067616D1E
:10022000652E205772697474656E2062792053655B
:1002300072676579205961726B6F762032372E3084
:06024000392E323032318C
:00000001FF
