:020000020000FC
:100000000FED0DBF0F9300916000009361000F93FF
:1000100001E0009360000F910F91009160000130AA
:1000200061F43AD00F9300916000009361000F9348
:1000300002E0009360000F910F91023009F405D0A7
:10004000033001F4043001F4E8CF1F932F933F9362
:100050004F934BB30F9301EF0BBB0F9128D011E0DF
:1000600033E020EF110F210F2BBB21D03A95C9F7B8
:100070000F9308EF0BBB0F911AD018E033E020EF7D
:100080001695210F2BBB13D03A95C9F74BBB4F9157
:100090003F912F911F91089501D008950F930FE084
:1000A0000ABB02950BBBBA9AC2980F9108952F9381
:1000B0003F9321E43FEE3A95F1F72A95E1F70000EE
:1000C0003F912F9108954D656D6F7279206C656435
:1000D0002067616D652E205772697474656E2062A9
:1000E0007920536572676579205961726B6F76204C
:0A00F00032372E30392E3230323113
:00000001FF
