:020000020000FC
:100000001CC018950EC01895189518951895189538
:100010001895189518951895189518951895189578
:1000200018951F932F932FB719B3107F98D0109363
:1000300062002FBF2F911F9118950FED0DBF1093E8
:1000400061000F9301E0009360000F911091600038
:10005000113041F462D0109361000F9302E00093DD
:1000600060000F91123009F42FD0133051F5209118
:100070006200203E39F4D89ABA9A0F930EE806BF70
:100080000F9101C0D898203D39F4D99ABA9A0F93AC
:1000900007E406BF0F9101C0D998203B39F4DA9AE2
:1000A000BA9A0F9309E606BF0F9101C0DA9820377C
:1000B00039F4DB9ABA9A0F9300E506BF0F91D5CFBA
:1000C000DB98143001F4C2CF000008951F932F93E2
:1000D0003F934F934BB30F9301EF0BBB0F913FD067
:1000E00011E033E020EF110F210F2BBB38D03A95F0
:1000F000C9F70F9308EF0BBB0F9131D018E033E035
:1001000020EF1695210F2BBB2AD03A95C9F74BBB90
:100110004F913F912F911F9108951AD00AD010D07E
:1001200001D0089506E0D2DF0A95E9F724D0002730
:10013000089500E10BBF00EF02BB002778940895FB
:10014000BA9802E400BF0EE006BF02E003BF0895C4
:100150000FE00ABB02950BBBBA9AC29808952F9381
:100160003F9321E43FEE3A95F1F72A95E1F700003D
:100170003F912F9108958F939F9324E683EC99E00C
:100180000197F1F72A95D1F724E69F918F91089571
:100190004D656D6F7279206C65642067616D652EA9
:1001A000205772697474656E206279205365726796
:1001B0006579205961726B6F762032372E30392E77
:0401C0003230323176
:00000001FF
