:020000020000FC
:100000000FED0DBF15D001D0FECF1F932F933F935F
:1000100011EF1BBB1ED011E033E020EF110F210FB9
:100020002BBB17D03A95C9F71F912F913F91089597
:100030000FE00ABB02950BBBBA9AC298002708953D
:1000400024E683EC99E00197F1F72A95D1F724E6AD
:1000500008952F933F9322E83EED3A95F1F72A95C4
:10006000E1F700003F912F9108954D656D6F727912
:10007000206C65642067616D652E20577269747409
:10008000656E2062792053657267657920596172C7
:0E0090006B6F762032372E30392E32303231FF
:00000001FF
