:020000020000FC
:100000000FED0DBF25D001D0FECF1F932F933F934F
:100010004F934BB311EF1BBB2CD011E033E020EF1B
:10002000110F210F2BBB25D03A95C9F718EF1BBB39
:1000300020D018EF33E020EF1695211B2BBB19D0F1
:100040003A95C9F74BBB1F912F913F914F9108955E
:100050000FE00ABB02950BBBBA9AC298002708951D
:1000600024E683EC99E00197F1F72A95D1F724E68D
:1000700008952F933F9321E43FEE3A95F1F72A95A7
:10008000E1F700003F912F9108954D656D6F7279F2
:10009000206C65642067616D652E205772697474E9
:1000A000656E2062792053657267657920596172A7
:0E00B0006B6F762032372E30392E32303231DF
:00000001FF
