:020000020000FC
:100000000AC000C00F9301E0009362000F911895A1
:1000100020E0209362000FED0DBF0F930091600070
:10002000009361000F9301E0009360000F910F9126
:1000300000916000013061F441D00F9300916000A5
:10004000009361000F9302E0009360000F910F9105
:10005000023041F420916200213019F4DA9A4AD03A
:1000600001C0DA98033001F4043001F4E1CF1F93AA
:100070002F933F934F934BB30F9301EF0BBB0F9114
:1000800039D011E033E020EF110F210F2BBB32D01C
:100090003A95C9F70F9308EF0BBB0F912BD018E0DF
:1000A00033E020EF1695210F2BBB24D03A95C9F7EA
:1000B0004BBB4F913F912F911F91089512D008D0C3
:1000C00001D0089516E0D3DF1A95E9F71FD00895FF
:1000D0000F9300E10BBF00EF02BB002778940F9154
:1000E00008950F930FE00ABB02950BBBBA9AC29812
:1000F0000F9108952F933F9321E43FEE3A95F1F746
:100100002A95E1F700003F912F9108958F939F93D7
:1001100024E683EC99E00197F1F72A95D1F724E6DC
:100120009F918F9108954D656D6F7279206C656414
:100130002067616D652E205772697474656E206248
:100140007920536572676579205961726B6F7620EB
:0A01500032372E30392E32303231B2
:00000001FF
