:020000020000FC
:100000001CC018950EC01895189518951895189538
:100010001895189518951895189518951895189578
:1000200018951F932F932FB719B3107F9CD010935F
:1000300062002FBF2F911F9118950FED0DBF002764
:10004000109361000F9301E0009360000F911091F5
:100050006000113041F465D0109361000F9302E00D
:10006000009360000F91123041F432D01093610080
:100070000F9303E0009360000F91133031F520914E
:100080006200203E31F4D89A0F930EE806BF0F911C
:1000900001C0D898203D31F4D99A0F9307E406BFE8
:1000A0000F9101C0D998203B31F4DA9A0F9309E6F9
:1000B00006BF0F9101C0DA98203731F4DB9A0F9315
:1000C00000E506BF0F91D9CFDB98143001F4BFCF04
:1000D000000008951F932F933F934F934BB30F93BB
:1000E00001EF0BBB0F913FD011E033E020EF110F78
:1000F000210F2BBB38D03A95C9F70F9308EF0BBBF4
:100100000F9131D018E033E020EF1695210F2BBB73
:100110002AD03A95C9F74BBB4F913F912F911F9130
:1001200008951AD00BD010D002D07894089506E02C
:10013000D1DF0A95E9F723D00027089500E10BBF2E
:1001400000EF02BB00270895BA9802E400BF0EE05A
:1001500006BF02E003BF08950FE00ABB02950BBB88
:10016000BA9AC29808952F933F9321E43FEE3A95AF
:10017000F1F72A95E1F700003F912F9108958F93B1
:100180009F9324E683EC99E00197F1F72A95D1F744
:1001900024E69F918F9108954D656D6F7279206C63
:1001A00065642067616D652E205772697474656E91
:1001B00020627920536572676579205961726B6F8F
:0C01C000762032372E30392E32303231AA
:00000001FF
