:020000020000FC
:1000000047C0189513C018950CC0189518951895E9
:100010001895189518951DC0189518951895189548
:100020001895A1B5A0E4A1BDB39418951F932F9383
:1000300025B72F7D25BF2FB710916000133031F405
:1000400019B3107FA1D1109362002FBF2F911F9180
:1000500018957F937FB702C008EA52B7052702952B
:10006000500F7FBF7F9118956DD15CD161D171D157
:100070003FEF41E0A2E0AA2EFF27E0E802D078940B
:10008000089573E0FDD07A95E9F795D17727089523
:100090000FED0DBF0027109361000F9301E0009357
:1000A00060000F9110916000113041F4DDDF10937A
:1000B00061000F9302E0009360000F91123041F451
:1000C00093D0109361000F9303E0009360000F91B1
:1000D0001330C1F520916200203E51F40F930EE8D9
:1000E00006BF0F91D89ABA9A2FD0D898BA98F2CF63
:1000F00020916200203D51F40F9307E406BF0F9159
:10010000D99ABA9A21D0D998BA98F2CF20916200A0
:10011000203B51F40F9309E606BF0F91DA9ABA9A81
:1001200013D0DA98BA98F2CF20916200203751F4B8
:100130000F9300E506BF0F91DB9ABA9A05D0DB98C2
:10014000BA98F2CF92D0AECF2F9329D128D127D110
:10015000A9B39A2FA07F9F70AA27A09362008191D4
:10016000981729F42A2D241751F0439510C02F9188
:1001700087D03FEFA2E0AA95AA2E0CD008952F9128
:1001800000EF0BBBBA980BD1A4D004D008952F91E7
:1001900008950895FF27E0E8BA9800EF0BBB0BD154
:1001A000109361000F9302E0009360000F9141E013
:1001B000A39408957A2DDD27C0E8F1D0652F663429
:1001C00030F06C3830F0683C30F06F3F30F0A1E038
:1001D00005C0A2E003C0A4E001C0A8E0A9937A95FD
:1001E000703059F700000895E5DF7A2DDD27C0E86B
:1001F0007030C1F1A991A13031F0A23079F0A43072
:10020000C1F0A83009F10F930EE806BF0F91D89AFC
:10021000BA9AACD0D898BA9828D020C00F9307E4E7
:1002200006BF0F91D99ABA9AA1D0D998BA981DD081
:1002300015C00F9309E606BF0F91DA9ABA9A96D0C5
:10024000DA98BA9812D00AC00F9300E506BF0F9152
:10025000DB9ABA9A8BD0DB98BA9807D087D07A9578
:10026000703031F607D09BD008957F937FEF76BF33
:100270007F9108953A50383208F008953FEF08957D
:100280001F932F933F934F93F8944BB30F9301EF2A
:100290000BBB0F9184D011E033E020EF110F210F41
:1002A0002BBB7DD03A95C9F70F9308EF0BBB0F918D
:1002B00076D018E033E020EF1695210F2BBB6FD0DE
:1002C0003A95C9F778944BBB4F913F912F911F916D
:1002D00008950F930EE806BF0F91D89ABA9A5FD08F
:1002E0005ED0D898BA980F9309E606BF0F91D99AB5
:1002F000BA9A55D054D0D998BA980F9300E506BF52
:100300000F91DA9ABA9A4BD04AD0DA98BA980F93EA
:1003100007E406BF0F91DB9ABA9A41D040D0DB9830
:10032000BA98089500E10BBF00EF02BB00270895C3
:10033000BA9802E400BF0FEF06BF02E003BF01E07E
:1003400009BF08950FE00ABB02950BBBBA9AC29889
:10035000089505B7006105BF0895F894A89501B503
:10036000086101BD0DE401BD789408952F934F936A
:100370002FEF432F00002A95E9F700004A95D1F7A7
:1003800000004F912F9108952F933F932AE139EF69
:100390003A95F1F72A95E1F73F912F9108952F9320
:1003A0003F9321E43FEE3A95F1F72A95E1F70000FB
:1003B0003F912F9108958F939F9324E683EC99E0CA
:1003C0000197F1F72A95D1F724E69F918F9108952F
:1003D0004D656D6F7279206C65642067616D652E67
:1003E000205772697474656E206279205365726754
:1003F0006579205961726B6F762032372E30392E35
:040400003230323133
:00000001FF
