:020000020000FC
:100000001CC018950EC01895189518951895189538
:100010001895189518951895189518951895189578
:1000200018951F932F932FB719B3107F8ED010936D
:1000300062002FBF2F911F9118950FED0DBF1093E8
:1000400061000F9301E0009360000F911091600038
:10005000113041F45BD0109361000F9302E00093E4
:1000600060000F91123031F520916200203E31F492
:10007000D89A0F9308E006BF0F9101C0D898203D91
:1000800031F4D99A0F930AE006BF0F9101C0D998B5
:10009000203B31F4DA9A0F930CE006BF0F9101C0B8
:1000A000DA98203731F4DB9A0F930FE006BF0F91F7
:1000B00001C0DB98133001F4143001F4C7CF1F9353
:1000C0002F933F934F934BB30F9301EF0BBB0F91C4
:1000D0003CD011E033E020EF110F210F2BBB35D0C6
:1000E0003A95C9F70F9308EF0BBB0F912ED018E08C
:1000F00033E020EF1695210F2BBB27D03A95C9F797
:100100004BBB4F913F912F911F91089517D009D06C
:1001100001D0089506E0D3DF0A95E9F722D0002741
:10012000089500E10BBF00EF02BB02E400BF04E052
:1001300006BF03E003BF0027789408950FE00ABBD1
:1001400002950BBBBA9AC29808952F933F9321E46E
:100150003FEE3A95F1F72A95E1F700003F912F9194
:1001600008958F939F9324E683EC99E00197F1F72C
:100170002A95D1F724E69F918F9108954D656D6F73
:100180007279206C65642067616D652E20577269F5
:100190007474656E206279205365726765792059A1
:1001A00061726B6F762032372E30392E3230323119
:00000001FF
