:020000020000FC
:100000001CC018950EC01895189518951895189538
:100010001895189518951895189518951895189578
:1000200018951F932F932FB719B3107F7FD010937C
:1000300062002FBF2F911F9118950FED0DBF0F93E9
:1000400000916000009361000F9301E00093600055
:100050000F910F9100916000013061F44FD00F9328
:1000600000916000009361000F9302E00093600034
:100070000F910F910230B1F420916200203E11F4F3
:10008000D89A01C0D898203D11F4D99A01C0D998C6
:10009000203B11F4DA9A01C0DA98203711F4DB9A88
:1000A00001C0DB98033001F4043001F4D3CF1F9377
:1000B0002F933F934F934BB30F9301EF0BBB0F91D4
:1000C00035D011E033E020EF110F210F2BBB2ED0E4
:1000D0003A95C9F70F9308EF0BBB0F9127D018E0A3
:1000E00033E020EF1695210F2BBB20D03A95C9F7AE
:1000F0004BBB4F913F912F911F91089510D008D085
:1001000001D0089516E0D3DF1A95E9F71BD00895C2
:1001100000E10BBF00EF02BB0027789408950FE0C9
:100120000ABB02950BBBBA9AC29808952F933F93CE
:1001300021E43FEE3A95F1F72A95E1F700003F916F
:100140002F9108958F939F9324E683EC99E0019774
:10015000F1F72A95D1F724E69F918F9108954D6587
:100160006D6F7279206C65642067616D652E205714
:1001700072697474656E206279205365726765795F
:10018000205961726B6F762032372E30392E323023
:0201900032310A
:00000001FF
