:020000020000FC
:100000003EC018950EC01895189518951895189516
:1000100018951895189515C0189518951895189550
:1000200018951F932F932FB710916000133031F460
:1000300019B3107F93D1109362002FBF2F911F919E
:1000400018957F937FB702C008EA52B7052702953B
:10005000500F7FBF7F9118956CD15BD160D13FEF7E
:1000600041E0A2E0AA2EFF27E0E802D078940895AC
:1000700073E0FDD07A95E9F788D1772708950FEDE1
:100080000DBF0027109361000F9301E00093600003
:100090000F9110916000113041F4DEDF1093610088
:1000A0000F9302E0009360000F91123041F493D05F
:1000B000109361000F9303E0009360000F911330E1
:1000C000C1F520916200203E51F40F930EE806BF67
:1000D0000F91D89ABA9A2FD0D898BA98F2CF209187
:1000E0006200203D51F40F9307E406BF0F91D99AA7
:1000F000BA9A21D0D998BA98F2CF20916200203BC9
:1001000051F40F9309E606BF0F91DA9ABA9A13D009
:10011000DA98BA98F2CF20916200203751F40F9309
:1001200000E506BF0F91DB9ABA9A05D0DB98BA9822
:10013000F2CF92D0AECF2F931CD11BD11AD1A9B33D
:100140009A2FA07F9F70AA27A09362008191981791
:1001500029F42A2D241751F0439510C02F9187D0F0
:100160003FEFA2E0AA95AA2E0CD008952F9100EFA0
:100170000BBBBA98FED0A4D004D008952F91089557
:100180000895FF27E0E8BA9800EF0BBBFED010936C
:1001900061000F9302E0009360000F9141E0A3948F
:1001A00008957A2DDD27C0E8E4D0652F663430F05D
:1001B0006C3830F0683C30F06F3F30F0A1E005C0A3
:1001C000A2E003C0A4E001C0A8E0A9937A95703032
:1001D00059F700000895E5DF7A2DDD27C0E870307B
:1001E000C1F1A991A13031F0A23079F0A430C1F071
:1001F000A83009F10F930EE806BF0F91D89ABA9A6A
:100200009FD0D898BA9828D020C00F9307E406BF93
:100210000F91D99ABA9A94D0D998BA981DD015C08E
:100220000F9309E606BF0F91DA9ABA9A89D0DA9845
:10023000BA9812D00AC00F9300E506BF0F91DB9A5F
:10024000BA9A7ED0DB98BA9807D07AD07A95703077
:1002500031F607D08ED008957F937FEF76BF7F91E0
:1002600008953A50383208F008953FEF08951F93EB
:100270002F933F934F93F8944BB30F9301EF0BBB26
:100280000F9177D011E033E020EF110F210F2BBB3E
:1002900070D03A95C9F70F9308EF0BBB0F9169D057
:1002A00018E033E020EF1695210F2BBB62D03A9572
:1002B000C9F778944BBB4F913F912F911F910895AF
:1002C0000F930EE806BF0F91D89ABA9A52D051D028
:1002D000D898BA980F9309E606BF0F91D99ABA9A9F
:1002E00048D047D0D998BA980F9300E506BF0F9130
:1002F000DA9ABA9A3ED03DD0DA98BA980F9307E4CA
:1003000006BF0F91DB9ABA9A34D033D0DB98BA98F3
:10031000089500E10BBF00EF02BB00270895BA98D3
:1003200002E400BF0FEF06BF02E003BF01E009BF18
:1003300008950FE00ABB02950BBBBA9AC2980895C4
:100340002F934F932FEF432F00002A95E9F70000DA
:100350004A95D1F700004F912F9108952F933F9325
:100360002AE139EF3A95F1F72A95E1F73F912F917C
:1003700008952F933F9321E43FEE3A95F1F72A95A4
:10038000E1F700003F912F9108958F939F9324E60A
:1003900083EC99E00197F1F72A95D1F724E69F9134
:1003A0008F9108954D656D6F7279206C656420673B
:1003B000616D652E205772697474656E20627920B4
:1003C000536572676579205961726B6F7620323799
:0803D0002E30392E323032319B
:00000001FF
