:020000020000FC
:100000003BC018950EC01895189518951895189519
:1000100018951895189515C0189518951895189550
:1000200018951F932F932FB710916000133031F460
:1000300019B3107F5AD1109362002FBF2F911F91D7
:1000400018957F937FB702C008EA52B7052702953B
:10005000500F7FBF7F91189533D122D127D13FEF29
:1000600041E0FF27E0E87894089506E0F2D00A9591
:10007000E9F747D1002708950FED0DBF0027109332
:1000800061000F9301E0009360000F9110916000F8
:10009000113041F4E1DF109361000F9302E000930F
:1000A00060000F91123041F488D0109361000F93DB
:1000B00003E0009360000F911330C1F520916200BE
:1000C000203E51F40F930EE806BF0F91D89ABA9ACA
:1000D00031D0D898BA98F2CF20916200203D51F4E7
:1000E0000F9307E406BF0F91D99ABA9A23D0D998F3
:1000F000BA98F2CF20916200203B51F40F9309E6A9
:1001000006BF0F91DA9ABA9A15D0DA98BA98F2CF58
:1001100020916200203761F40F9300E506BF0F9134
:10012000DB9ABA9A07D0DB98BA98F2CF143001F470
:1001300085D0ACCF2F93D9D0D8D0D7D0D6D0A9B333
:100140009A2FA07F9F70AA27A09362008191981791
:1001500029F424E0241721F0439512C07AD03FEF10
:100160002F91FF27E0E8BA9800EF0BBBCAD010939D
:1001700061000F9302E0009360000F9141E0089549
:100180002F910895089574E0DD27C0E8AED0652F63
:10019000663430F06C3830F0683C30F06F3F30F04F
:1001A000A1E005C0A2E003C0A4E001C0A8E0A993BB
:1001B0007A95703059F700000895E5DF74E0DD2787
:1001C000C0E87030C1F1A991A13031F0A23079F0CE
:1001D000A430C1F0A83009F10F930EE806BF0F91CB
:1001E000D89ABA9A74D0D898BA9828D020C00F93C9
:1001F00007E406BF0F91D99ABA9A69D0D998BA98EC
:100200001DD015C00F9309E606BF0F91DA9ABA9A6E
:100210005ED0DA98BA9812D00AC00F9300E506BFF4
:100220000F91DB9ABA9A53D0DB98BA9807D04FD087
:100230007A95703031F607D058D008957F937FEFCC
:1002400076BF7F9108953A50383208F008953FEF15
:1002500008951F932F933F934F934BB30F9301EF49
:100260000BBB0F9142D011E033E020EF110F210FB3
:100270002BBB3BD03A95C9F70F9308EF0BBB0F91FF
:1002800034D018E033E020EF1695210F2BBB2DD092
:100290003A95C9F74BBB4F913F912F911F9108950C
:1002A00000E10BBF00EF02BB00270895BA9802E4FB
:1002B00000BF0FEF06BF02E003BF01E009BF0895D2
:1002C0000FE00ABB02950BBBBA9AC29808952F9310
:1002D0004F932FEF432F00002A95E9F700004A952E
:1002E000D1F700004F912F9108952F933F9321E470
:1002F0003FEE3A95F1F72A95E1F700003F912F91F3
:10030000089524E683EC99E00197F1F72A95D1F757
:1003100024E608954D656D6F7279206C65642067E1
:10032000616D652E205772697474656E2062792044
:10033000536572676579205961726B6F7620323729
:080340002E30392E323032312B
:00000001FF
