:020000020000FC
:100000003EC018950EC01895189518951895189516
:1000100018951895189515C0189518951895189550
:1000200018951F932F932FB710916000133031F460
:1000300019B3107F60D1109362002FBF2F911F91D1
:1000400018957F937FB702C008EA52B7052702953B
:10005000500F7FBF7F91189539D128D12DD13FEF17
:1000600041E0A2E0AA2EFF27E0E802D078940895AC
:1000700073E0F3D07A95E9F74AD1772708950FED29
:100080000DBF0027109361000F9301E00093600003
:100090000F9110916000113041F4DEDF1093610088
:1000A0000F9302E0009360000F91123041F489D069
:1000B000109361000F9303E0009360000F911330E1
:1000C000C1F520916200203E51F40F930EE806BF67
:1000D0000F91D89ABA9A2FD0D898BA98F2CF209187
:1000E0006200203D51F40F9307E406BF0F91D99AA7
:1000F000BA9A21D0D998BA98F2CF20916200203BC9
:1001000051F40F9309E606BF0F91DA9ABA9A13D009
:10011000DA98BA98F2CF20916200203751F40F9309
:1001200000E506BF0F91DB9ABA9A05D0DB98BA9822
:10013000F2CF88D0AECF2F93DED0DDD0DCD0A9B304
:100140009A2FA07F9F70AA27A09362008191981791
:1001500029F42A2D241739F0439516C07ED03FEF9D
:10016000A2E0AA95AA2E2F91FF27E0E8BA9800EF07
:100170000BBBCDD0109361000F9302E000936000A1
:100180000F9141E0A39408952F91089508957A2D39
:10019000DD27C0E8B0D0652F663430F06C3830F021
:1001A000683C30F06F3F30F0A1E005C0A2E003C032
:1001B000A4E001C0A8E0A9937A95703059F7000037
:1001C0000895E5DF7A2DDD27C0E87030C1F1A991EF
:1001D000A13031F0A23079F0A430C1F0A83009F19B
:1001E0000F930EE806BF0F91D89ABA9A76D0D89896
:1001F000BA9828D020C00F9307E406BF0F91D99A70
:10020000BA9A6BD0D998BA981DD015C00F9309E649
:1002100006BF0F91DA9ABA9A60D0DA98BA9812D0DB
:100220000AC00F9300E506BF0F91DB9ABA9A55D02A
:10023000DB98BA9807D051D07A95703031F607D054
:100240005AD008957F937FEF76BF7F9108953A50FB
:10025000383208F008953FEF08951F932F933F938E
:100260004F93F8944BB30F9301EF0BBB0F9143D017
:1002700011E033E020EF110F210F2BBB3CD03A955A
:10028000C9F70F9308EF0BBB0F9135D018E033E09F
:1002900020EF1695210F2BBB2ED03A95C9F77894F5
:1002A0004BBB4F913F912F911F91089500E10BBFE0
:1002B00000EF02BB00270895BA9802E400BF0FEFD9
:1002C00006BF02E003BF01E009BF08950FE00ABBCB
:1002D00002950BBBBA9AC29808952F934F932FEFB4
:1002E000432F00002A95E9F700004A95D1F7000056
:1002F0004F912F9108952F933F9321E43FEE3A952C
:10030000F1F72A95E1F700003F912F9108958F931F
:100310009F9324E683EC99E00197F1F72A95D1F7B2
:1003200024E69F918F9108954D656D6F7279206CD1
:1003300065642067616D652E205772697474656EFF
:1003400020627920536572676579205961726B6FFD
:0C035000762032372E30392E3230323118
:00000001FF
